{
  "contractName": "LawStorage",
  "abi": [
    {
      "anonymous": false,
      "inputs": [
        {
          "indexed": true,
          "name": "clause",
          "type": "string"
        },
        {
          "indexed": true,
          "name": "lawHash",
          "type": "string"
        }
      ],
      "name": "LawUpdated",
      "type": "event",
      "signature": "0x3263fbba41c9be218594d1189d3a2576785d6ddd7a09795bbe5625aa50ce319f"
    },
    {
      "constant": false,
      "inputs": [
        {
          "name": "_clause",
          "type": "string"
        },
        {
          "name": "_lawHash",
          "type": "string"
        }
      ],
      "name": "store",
      "outputs": [],
      "payable": false,
      "stateMutability": "nonpayable",
      "type": "function",
      "signature": "0xf641090c"
    },
    {
      "constant": true,
      "inputs": [],
      "name": "retrieve",
      "outputs": [
        {
          "name": "",
          "type": "string"
        },
        {
          "name": "",
          "type": "string"
        }
      ],
      "payable": false,
      "stateMutability": "view",
      "type": "function",
      "signature": "0x2e64cec1"
    }
  ],
  "bytecode": "0x608060405234801561001057600080fd5b506105e8806100206000396000f3fe60806040526004361061004c576000357c0100000000000000000000000000000000000000000000000000000000900463ffffffff1680632e64cec114610051578063f641090c1461014d575b600080fd5b34801561005d57600080fd5b506100666102ac565b604051808060200180602001838103835285818151815260200191508051906020019080838360005b838110156100aa57808201518184015260208101905061008f565b50505050905090810190601f1680156100d75780820380516001836020036101000a031916815260200191505b50838103825284818151815260200191508051906020019080838360005b838110156101105780820151818401526020810190506100f5565b50505050905090810190601f16801561013d5780820380516001836020036101000a031916815260200191505b5094505050505060405180910390f35b34801561015957600080fd5b506102aa6004803603604081101561017057600080fd5b810190808035906020019064010000000081111561018d57600080fd5b82018360208201111561019f57600080fd5b803590602001918460018302840111640100000000831117156101c157600080fd5b91908080601f016020809104026020016040519081016040528093929190818152602001838380828437600081840152601f19601f8201169050808301925050505050505091929192908035906020019064010000000081111561022457600080fd5b82018360208201111561023657600080fd5b8035906020019184600183028401116401000000008311171561025857600080fd5b91908080601f016020809104026020016040519081016040528093929190818152602001838380828437600081840152601f19601f8201169050808301925050505050505091929192905050506103f3565b005b60608060006001818054600181600116156101000203166002900480601f0160208091040260200160405190810160405280929190818152602001828054600181600116156101000203166002900480156103485780601f1061031d57610100808354040283529160200191610348565b820191906000526020600020905b81548152906001019060200180831161032b57829003601f168201915b50505050509150808054600181600116156101000203166002900480601f0160208091040260200160405190810160405280929190818152602001828054600181600116156101000203166002900480156103e45780601f106103b9576101008083540402835291602001916103e4565b820191906000526020600020905b8154815290600101906020018083116103c757829003601f168201915b50505050509050915091509091565b8160009080519060200190610409929190610517565b508060019080519060200190610420929190610517565b50806040518082805190602001908083835b6020831015156104575780518252602082019150602081019050602083039250610432565b6001836020036101000a0380198251168184511680821785525050505050509050019150506040518091039020826040518082805190602001908083835b6020831015156104ba5780518252602082019150602081019050602083039250610495565b6001836020036101000a03801982511681845116808217855250505050505090500191505060405180910390207f3263fbba41c9be218594d1189d3a2576785d6ddd7a09795bbe5625aa50ce319f60405160405180910390a35050565b828054600181600116156101000203166002900490600052602060002090601f016020900481019282601f1061055857805160ff1916838001178555610586565b82800160010185558215610586579182015b8281111561058557825182559160200191906001019061056a565b5b5090506105939190610597565b5090565b6105b991905b808211156105b557600081600090555060010161059d565b5090565b9056fea165627a7a72305820738aaa1320d5ca161094577a5dcd5140ea514deaeb7166299c868be073e175be0029",
  "source": "// SPDX-License-Identifier: GPL-3.0\n\npragma solidity >=0.4.21 <0.6.0;\n\ncontract LawStorage {\n    string clause;\n    string lawHash;\n\n    event LawUpdated(string indexed clause, string indexed lawHash);\n\n    // store function\n    function store(string memory _clause, string memory _lawHash) public {\n        clause = _clause;\n        lawHash = _lawHash;\n        emit LawUpdated(_clause, _lawHash);\n    }\n\n    // retrieve function\n    function retrieve() public view returns (string memory, string memory) {\n        return (clause, lawHash);\n    }\n}\n",
  "sourcePath": "/Users/cdewolf2015/Desktop/MSCybersecurity/ECE8491_Blockchain/ECE8491_DesignProject/web3-law/src/contracts/LawStorage.sol",
  "compiler": {
    "name": "solc",
    "version": "0.5.0+commit.1d4f565a.Emscripten.clang"
  },
  "schemaVersion": "3.0.2",
  "updatedAt": "2022-04-19T23:14:10.203Z",
  "devdoc": {
    "methods": {}
  },
  "userdoc": {
    "methods": {}
  }
}